{
  "contractName": "ERC20WrapperGluwacoin",
  "abi": [
    {
      "anonymous": false,
      "inputs": [
        {
          "indexed": true,
          "internalType": "address",
          "name": "owner",
          "type": "address"
        },
        {
          "indexed": true,
          "internalType": "address",
          "name": "spender",
          "type": "address"
        },
        {
          "indexed": false,
          "internalType": "uint256",
          "name": "value",
          "type": "uint256"
        }
      ],
      "name": "Approval",
      "type": "event"
    },
    {
      "anonymous": false,
      "inputs": [
        {
          "indexed": true,
          "internalType": "address",
          "name": "_burnFrom",
          "type": "address"
        },
        {
          "indexed": false,
          "internalType": "uint256",
          "name": "_value",
          "type": "uint256"
        }
      ],
      "name": "Burnt",
      "type": "event"
    },
    {
      "anonymous": false,
      "inputs": [
        {
          "indexed": true,
          "internalType": "address",
          "name": "_mintTo",
          "type": "address"
        },
        {
          "indexed": false,
          "internalType": "uint256",
          "name": "_value",
          "type": "uint256"
        }
      ],
      "name": "Mint",
      "type": "event"
    },
    {
      "anonymous": false,
      "inputs": [
        {
          "indexed": false,
          "internalType": "address",
          "name": "account",
          "type": "address"
        }
      ],
      "name": "Paused",
      "type": "event"
    },
    {
      "anonymous": false,
      "inputs": [
        {
          "indexed": true,
          "internalType": "bytes32",
          "name": "role",
          "type": "bytes32"
        },
        {
          "indexed": true,
          "internalType": "address",
          "name": "account",
          "type": "address"
        },
        {
          "indexed": true,
          "internalType": "address",
          "name": "sender",
          "type": "address"
        }
      ],
      "name": "RoleGranted",
      "type": "event"
    },
    {
      "anonymous": false,
      "inputs": [
        {
          "indexed": true,
          "internalType": "bytes32",
          "name": "role",
          "type": "bytes32"
        },
        {
          "indexed": true,
          "internalType": "address",
          "name": "account",
          "type": "address"
        },
        {
          "indexed": true,
          "internalType": "address",
          "name": "sender",
          "type": "address"
        }
      ],
      "name": "RoleRevoked",
      "type": "event"
    },
    {
      "anonymous": false,
      "inputs": [
        {
          "indexed": true,
          "internalType": "address",
          "name": "from",
          "type": "address"
        },
        {
          "indexed": true,
          "internalType": "address",
          "name": "to",
          "type": "address"
        },
        {
          "indexed": false,
          "internalType": "uint256",
          "name": "value",
          "type": "uint256"
        }
      ],
      "name": "Transfer",
      "type": "event"
    },
    {
      "anonymous": false,
      "inputs": [
        {
          "indexed": false,
          "internalType": "address",
          "name": "account",
          "type": "address"
        }
      ],
      "name": "Unpaused",
      "type": "event"
    },
    {
      "inputs": [],
      "name": "DEFAULT_ADMIN_ROLE",
      "outputs": [
        {
          "internalType": "bytes32",
          "name": "",
          "type": "bytes32"
        }
      ],
      "stateMutability": "view",
      "type": "function"
    },
    {
      "inputs": [],
      "name": "RELAYER_ROLE",
      "outputs": [
        {
          "internalType": "bytes32",
          "name": "",
          "type": "bytes32"
        }
      ],
      "stateMutability": "view",
      "type": "function"
    },
    {
      "inputs": [],
      "name": "WRAPPER_ROLE",
      "outputs": [
        {
          "internalType": "bytes32",
          "name": "",
          "type": "bytes32"
        }
      ],
      "stateMutability": "view",
      "type": "function"
    },
    {
      "inputs": [
        {
          "internalType": "address",
          "name": "owner",
          "type": "address"
        },
        {
          "internalType": "address",
          "name": "spender",
          "type": "address"
        }
      ],
      "name": "allowance",
      "outputs": [
        {
          "internalType": "uint256",
          "name": "",
          "type": "uint256"
        }
      ],
      "stateMutability": "view",
      "type": "function"
    },
    {
      "inputs": [
        {
          "internalType": "address",
          "name": "spender",
          "type": "address"
        },
        {
          "internalType": "uint256",
          "name": "amount",
          "type": "uint256"
        }
      ],
      "name": "approve",
      "outputs": [
        {
          "internalType": "bool",
          "name": "",
          "type": "bool"
        }
      ],
      "stateMutability": "nonpayable",
      "type": "function"
    },
    {
      "inputs": [
        {
          "internalType": "address",
          "name": "account",
          "type": "address"
        }
      ],
      "name": "balanceOf",
      "outputs": [
        {
          "internalType": "uint256",
          "name": "",
          "type": "uint256"
        }
      ],
      "stateMutability": "view",
      "type": "function"
    },
    {
      "inputs": [
        {
          "internalType": "uint256",
          "name": "amount",
          "type": "uint256"
        }
      ],
      "name": "burn",
      "outputs": [],
      "stateMutability": "nonpayable",
      "type": "function"
    },
    {
      "inputs": [
        {
          "internalType": "address",
          "name": "burner",
          "type": "address"
        },
        {
          "internalType": "uint256",
          "name": "amount",
          "type": "uint256"
        },
        {
          "internalType": "uint256",
          "name": "fee",
          "type": "uint256"
        },
        {
          "internalType": "uint256",
          "name": "nonce",
          "type": "uint256"
        },
        {
          "internalType": "bytes",
          "name": "sig",
          "type": "bytes"
        }
      ],
      "name": "burn",
      "outputs": [],
      "stateMutability": "nonpayable",
      "type": "function"
    },
    {
      "inputs": [],
      "name": "decimals",
      "outputs": [
        {
          "internalType": "uint8",
          "name": "",
          "type": "uint8"
        }
      ],
      "stateMutability": "view",
      "type": "function"
    },
    {
      "inputs": [
        {
          "internalType": "address",
          "name": "spender",
          "type": "address"
        },
        {
          "internalType": "uint256",
          "name": "subtractedValue",
          "type": "uint256"
        }
      ],
      "name": "decreaseAllowance",
      "outputs": [
        {
          "internalType": "bool",
          "name": "",
          "type": "bool"
        }
      ],
      "stateMutability": "nonpayable",
      "type": "function"
    },
    {
      "inputs": [
        {
          "internalType": "address",
          "name": "sender",
          "type": "address"
        },
        {
          "internalType": "uint256",
          "name": "nonce",
          "type": "uint256"
        }
      ],
      "name": "execute",
      "outputs": [
        {
          "internalType": "bool",
          "name": "success",
          "type": "bool"
        }
      ],
      "stateMutability": "nonpayable",
      "type": "function"
    },
    {
      "inputs": [
        {
          "internalType": "address",
          "name": "sender",
          "type": "address"
        },
        {
          "internalType": "uint256",
          "name": "nonce",
          "type": "uint256"
        }
      ],
      "name": "getReservation",
      "outputs": [
        {
          "internalType": "uint256",
          "name": "amount",
          "type": "uint256"
        },
        {
          "internalType": "uint256",
          "name": "fee",
          "type": "uint256"
        },
        {
          "internalType": "address",
          "name": "recipient",
          "type": "address"
        },
        {
          "internalType": "address",
          "name": "executor",
          "type": "address"
        },
        {
          "internalType": "uint256",
          "name": "expiryBlockNum",
          "type": "uint256"
        }
      ],
      "stateMutability": "view",
      "type": "function"
    },
    {
      "inputs": [
        {
          "internalType": "bytes32",
          "name": "role",
          "type": "bytes32"
        }
      ],
      "name": "getRoleAdmin",
      "outputs": [
        {
          "internalType": "bytes32",
          "name": "",
          "type": "bytes32"
        }
      ],
      "stateMutability": "view",
      "type": "function"
    },
    {
      "inputs": [
        {
          "internalType": "bytes32",
          "name": "role",
          "type": "bytes32"
        },
        {
          "internalType": "uint256",
          "name": "index",
          "type": "uint256"
        }
      ],
      "name": "getRoleMember",
      "outputs": [
        {
          "internalType": "address",
          "name": "",
          "type": "address"
        }
      ],
      "stateMutability": "view",
      "type": "function"
    },
    {
      "inputs": [
        {
          "internalType": "bytes32",
          "name": "role",
          "type": "bytes32"
        }
      ],
      "name": "getRoleMemberCount",
      "outputs": [
        {
          "internalType": "uint256",
          "name": "",
          "type": "uint256"
        }
      ],
      "stateMutability": "view",
      "type": "function"
    },
    {
      "inputs": [
        {
          "internalType": "bytes32",
          "name": "role",
          "type": "bytes32"
        },
        {
          "internalType": "address",
          "name": "account",
          "type": "address"
        }
      ],
      "name": "grantRole",
      "outputs": [],
      "stateMutability": "nonpayable",
      "type": "function"
    },
    {
      "inputs": [
        {
          "internalType": "bytes32",
          "name": "role",
          "type": "bytes32"
        },
        {
          "internalType": "address",
          "name": "account",
          "type": "address"
        }
      ],
      "name": "hasRole",
      "outputs": [
        {
          "internalType": "bool",
          "name": "",
          "type": "bool"
        }
      ],
      "stateMutability": "view",
      "type": "function"
    },
    {
      "inputs": [
        {
          "internalType": "address",
          "name": "spender",
          "type": "address"
        },
        {
          "internalType": "uint256",
          "name": "addedValue",
          "type": "uint256"
        }
      ],
      "name": "increaseAllowance",
      "outputs": [
        {
          "internalType": "bool",
          "name": "",
          "type": "bool"
        }
      ],
      "stateMutability": "nonpayable",
      "type": "function"
    },
    {
      "inputs": [
        {
          "internalType": "uint256",
          "name": "amount",
          "type": "uint256"
        }
      ],
      "name": "mint",
      "outputs": [],
      "stateMutability": "nonpayable",
      "type": "function"
    },
    {
      "inputs": [
        {
          "internalType": "address",
          "name": "minter",
          "type": "address"
        },
        {
          "internalType": "uint256",
          "name": "amount",
          "type": "uint256"
        },
        {
          "internalType": "uint256",
          "name": "fee",
          "type": "uint256"
        },
        {
          "internalType": "uint256",
          "name": "nonce",
          "type": "uint256"
        },
        {
          "internalType": "bytes",
          "name": "sig",
          "type": "bytes"
        }
      ],
      "name": "mint",
      "outputs": [],
      "stateMutability": "nonpayable",
      "type": "function"
    },
    {
      "inputs": [],
      "name": "name",
      "outputs": [
        {
          "internalType": "string",
          "name": "",
          "type": "string"
        }
      ],
      "stateMutability": "view",
      "type": "function"
    },
    {
      "inputs": [],
      "name": "paused",
      "outputs": [
        {
          "internalType": "bool",
          "name": "",
          "type": "bool"
        }
      ],
      "stateMutability": "view",
      "type": "function"
    },
    {
      "inputs": [
        {
          "internalType": "address",
          "name": "sender",
          "type": "address"
        },
        {
          "internalType": "uint256",
          "name": "nonce",
          "type": "uint256"
        }
      ],
      "name": "reclaim",
      "outputs": [
        {
          "internalType": "bool",
          "name": "success",
          "type": "bool"
        }
      ],
      "stateMutability": "nonpayable",
      "type": "function"
    },
    {
      "inputs": [
        {
          "internalType": "bytes32",
          "name": "role",
          "type": "bytes32"
        },
        {
          "internalType": "address",
          "name": "account",
          "type": "address"
        }
      ],
      "name": "renounceRole",
      "outputs": [],
      "stateMutability": "nonpayable",
      "type": "function"
    },
    {
      "inputs": [
        {
          "internalType": "address",
          "name": "sender",
          "type": "address"
        },
        {
          "internalType": "address",
          "name": "recipient",
          "type": "address"
        },
        {
          "internalType": "address",
          "name": "executor",
          "type": "address"
        },
        {
          "internalType": "uint256",
          "name": "amount",
          "type": "uint256"
        },
        {
          "internalType": "uint256",
          "name": "fee",
          "type": "uint256"
        },
        {
          "internalType": "uint256",
          "name": "nonce",
          "type": "uint256"
        },
        {
          "internalType": "uint256",
          "name": "expiryBlockNum",
          "type": "uint256"
        },
        {
          "internalType": "bytes",
          "name": "sig",
          "type": "bytes"
        }
      ],
      "name": "reserve",
      "outputs": [
        {
          "internalType": "bool",
          "name": "success",
          "type": "bool"
        }
      ],
      "stateMutability": "nonpayable",
      "type": "function"
    },
    {
      "inputs": [
        {
          "internalType": "address",
          "name": "account",
          "type": "address"
        }
      ],
      "name": "reservedBalanceOf",
      "outputs": [
        {
          "internalType": "uint256",
          "name": "amount",
          "type": "uint256"
        }
      ],
      "stateMutability": "view",
      "type": "function"
    },
    {
      "inputs": [
        {
          "internalType": "bytes32",
          "name": "role",
          "type": "bytes32"
        },
        {
          "internalType": "address",
          "name": "account",
          "type": "address"
        }
      ],
      "name": "revokeRole",
      "outputs": [],
      "stateMutability": "nonpayable",
      "type": "function"
    },
    {
      "inputs": [],
      "name": "symbol",
      "outputs": [
        {
          "internalType": "string",
          "name": "",
          "type": "string"
        }
      ],
      "stateMutability": "view",
      "type": "function"
    },
    {
      "inputs": [],
      "name": "token",
      "outputs": [
        {
          "internalType": "contract IERC20",
          "name": "",
          "type": "address"
        }
      ],
      "stateMutability": "view",
      "type": "function"
    },
    {
      "inputs": [],
      "name": "totalSupply",
      "outputs": [
        {
          "internalType": "uint256",
          "name": "",
          "type": "uint256"
        }
      ],
      "stateMutability": "view",
      "type": "function"
    },
    {
      "inputs": [
        {
          "internalType": "address",
          "name": "sender",
          "type": "address"
        },
        {
          "internalType": "address",
          "name": "recipient",
          "type": "address"
        },
        {
          "internalType": "uint256",
          "name": "amount",
          "type": "uint256"
        },
        {
          "internalType": "uint256",
          "name": "fee",
          "type": "uint256"
        },
        {
          "internalType": "uint256",
          "name": "nonce",
          "type": "uint256"
        },
        {
          "internalType": "bytes",
          "name": "sig",
          "type": "bytes"
        }
      ],
      "name": "transfer",
      "outputs": [
        {
          "internalType": "bool",
          "name": "success",
          "type": "bool"
        }
      ],
      "stateMutability": "nonpayable",
      "type": "function"
    },
    {
      "inputs": [
        {
          "internalType": "address",
          "name": "recipient",
          "type": "address"
        },
        {
          "internalType": "uint256",
          "name": "amount",
          "type": "uint256"
        }
      ],
      "name": "transfer",
      "outputs": [
        {
          "internalType": "bool",
          "name": "",
          "type": "bool"
        }
      ],
      "stateMutability": "nonpayable",
      "type": "function"
    },
    {
      "inputs": [
        {
          "internalType": "address",
          "name": "sender",
          "type": "address"
        },
        {
          "internalType": "address",
          "name": "recipient",
          "type": "address"
        },
        {
          "internalType": "uint256",
          "name": "amount",
          "type": "uint256"
        }
      ],
      "name": "transferFrom",
      "outputs": [
        {
          "internalType": "bool",
          "name": "",
          "type": "bool"
        }
      ],
      "stateMutability": "nonpayable",
      "type": "function"
    },
    {
      "inputs": [
        {
          "internalType": "address",
          "name": "account",
          "type": "address"
        }
      ],
      "name": "unreservedBalanceOf",
      "outputs": [
        {
          "internalType": "uint256",
          "name": "amount",
          "type": "uint256"
        }
      ],
      "stateMutability": "view",
      "type": "function"
    },
    {
      "inputs": [
        {
          "internalType": "string",
          "name": "name",
          "type": "string"
        },
        {
          "internalType": "string",
          "name": "symbol",
          "type": "string"
        },
        {
          "internalType": "uint8",
          "name": "decimals",
          "type": "uint8"
        },
        {
          "internalType": "contract IERC20",
          "name": "token",
          "type": "address"
        }
      ],
      "name": "initialize",
      "outputs": [],
      "stateMutability": "nonpayable",
      "type": "function"
    }
  ],
  "bytecode": "0x608060405234801561001057600080fd5b50615083806100206000396000f3fe608060405234801561001057600080fd5b50600436106102105760003560e01c806370a0823111610125578063a22ac5a9116100ad578063ca15c8731161007c578063ca15c87314610edd578063d547741f14610f1f578063dd62ed3e14610f6d578063de7ea79d14610fe5578063fc0c546a1461116457610210565b8063a22ac5a914610c72578063a457c2d714610d1c578063a9059cbb14610d80578063b49c99b814610de457610210565b806391d14854116100f457806391d1485414610b21578063926d7d7f14610b8557806395d89b4114610ba3578063a0712d6814610c26578063a217fddf14610c5457610210565b806370a08231146108a957806380c9dcf7146109015780638bd317eb14610a5b5780639010d07c14610abf57610210565b8063313ce567116101a85780633b89bb86116101775780633b89bb86146106e057806341ce72481461074457806342966c68146107625780635c975abb1461079057806369cd5d3b146107b057610210565b8063313ce567146105b557806336568abe146105d657806336bd063a14610624578063395093511461067c57610210565b806318160ddd116101e457806318160ddd1461048357806323b872dd146104a1578063248a9ca3146105255780632f2ff15d1461056757610210565b8062aa0bce1461021557806306fdde031461026d578063095ea7b3146102f05780630982d5b014610354575b600080fd5b6102576004803603602081101561022b57600080fd5b81019080803573ffffffffffffffffffffffffffffffffffffffff169060200190929190505050611198565b6040518082815260200191505060405180910390f35b6102756111c4565b6040518080602001828103825283818151815260200191508051906020019080838360005b838110156102b557808201518184015260208101905061029a565b50505050905090810190601f1680156102e25780820380516001836020036101000a031916815260200191505b509250505060405180910390f35b61033c6004803603604081101561030657600080fd5b81019080803573ffffffffffffffffffffffffffffffffffffffff16906020019092919080359060200190929190505050611266565b60405180821515815260200191505060405180910390f35b61046b600480360360c081101561036a57600080fd5b81019080803573ffffffffffffffffffffffffffffffffffffffff169060200190929190803573ffffffffffffffffffffffffffffffffffffffff169060200190929190803590602001909291908035906020019092919080359060200190929190803590602001906401000000008111156103e557600080fd5b8201836020820111156103f757600080fd5b8035906020019184600183028401116401000000008311171561041957600080fd5b91908080601f016020809104026020016040519081016040528093929190818152602001838380828437600081840152601f19601f820116905080830192505050505050509192919290505050611284565b60405180821515815260200191505060405180910390f35b61048b61135d565b6040518082815260200191505060405180910390f35b61050d600480360360608110156104b757600080fd5b81019080803573ffffffffffffffffffffffffffffffffffffffff169060200190929190803573ffffffffffffffffffffffffffffffffffffffff16906020019092919080359060200190929190505050611367565b60405180821515815260200191505060405180910390f35b6105516004803603602081101561053b57600080fd5b8101908080359060200190929190505050611440565b6040518082815260200191505060405180910390f35b6105b36004803603604081101561057d57600080fd5b8101908080359060200190929190803573ffffffffffffffffffffffffffffffffffffffff169060200190929190505050611460565b005b6105bd6114ea565b604051808260ff16815260200191505060405180910390f35b610622600480360360408110156105ec57600080fd5b8101908080359060200190929190803573ffffffffffffffffffffffffffffffffffffffff169060200190929190505050611501565b005b6106666004803603602081101561063a57600080fd5b81019080803573ffffffffffffffffffffffffffffffffffffffff16906020019092919050505061159a565b6040518082815260200191505060405180910390f35b6106c86004803603604081101561069257600080fd5b81019080803573ffffffffffffffffffffffffffffffffffffffff169060200190929190803590602001909291905050506115ac565b60405180821515815260200191505060405180910390f35b61072c600480360360408110156106f657600080fd5b81019080803573ffffffffffffffffffffffffffffffffffffffff1690602001909291908035906020019092919050505061165f565b60405180821515815260200191505060405180910390f35b61074c611a85565b6040518082815260200191505060405180910390f35b61078e6004803603602081101561077857600080fd5b8101908080359060200190929190505050611aa9565b005b610798611abd565b60405180821515815260200191505060405180910390f35b6108a7600480360360a08110156107c657600080fd5b81019080803573ffffffffffffffffffffffffffffffffffffffff1690602001909291908035906020019092919080359060200190929190803590602001909291908035906020019064010000000081111561082157600080fd5b82018360208201111561083357600080fd5b8035906020019184600183028401116401000000008311171561085557600080fd5b91908080601f016020809104026020016040519081016040528093929190818152602001838380828437600081840152601f19601f820116905080830192505050505050509192919290505050611ad5565b005b6108eb600480360360208110156108bf57600080fd5b81019080803573ffffffffffffffffffffffffffffffffffffffff169060200190929190505050611bc6565b6040518082815260200191505060405180910390f35b610a43600480360361010081101561091857600080fd5b81019080803573ffffffffffffffffffffffffffffffffffffffff169060200190929190803573ffffffffffffffffffffffffffffffffffffffff169060200190929190803573ffffffffffffffffffffffffffffffffffffffff16906020019092919080359060200190929190803590602001909291908035906020019092919080359060200190929190803590602001906401000000008111156109bd57600080fd5b8201836020820111156109cf57600080fd5b803590602001918460018302840111640100000000831117156109f157600080fd5b91908080601f016020809104026020016040519081016040528093929190818152602001838380828437600081840152601f19601f820116905080830192505050505050509192919290505050611c0f565b60405180821515815260200191505060405180910390f35b610aa760048036036040811015610a7157600080fd5b81019080803573ffffffffffffffffffffffffffffffffffffffff169060200190929190803590602001909291905050506120ef565b60405180821515815260200191505060405180910390f35b610af560048036036040811015610ad557600080fd5b8101908080359060200190929190803590602001909291905050506124fb565b604051808273ffffffffffffffffffffffffffffffffffffffff16815260200191505060405180910390f35b610b6d60048036036040811015610b3757600080fd5b8101908080359060200190929190803573ffffffffffffffffffffffffffffffffffffffff16906020019092919050505061252d565b60405180821515815260200191505060405180910390f35b610b8d61255f565b6040518082815260200191505060405180910390f35b610bab612583565b6040518080602001828103825283818151815260200191508051906020019080838360005b83811015610beb578082015181840152602081019050610bd0565b50505050905090810190601f168015610c185780820380516001836020036101000a031916815260200191505b509250505060405180910390f35b610c5260048036036020811015610c3c57600080fd5b8101908080359060200190929190505050612625565b005b610c5c612639565b6040518082815260200191505060405180910390f35b610cbe60048036036040811015610c8857600080fd5b81019080803573ffffffffffffffffffffffffffffffffffffffff16906020019092919080359060200190929190505050612640565b604051808681526020018581526020018473ffffffffffffffffffffffffffffffffffffffff1681526020018373ffffffffffffffffffffffffffffffffffffffff1681526020018281526020019550505050505060405180910390f35b610d6860048036036040811015610d3257600080fd5b81019080803573ffffffffffffffffffffffffffffffffffffffff169060200190929190803590602001909291905050506127d2565b60405180821515815260200191505060405180910390f35b610dcc60048036036040811015610d9657600080fd5b81019080803573ffffffffffffffffffffffffffffffffffffffff1690602001909291908035906020019092919050505061289f565b60405180821515815260200191505060405180910390f35b610edb600480360360a0811015610dfa57600080fd5b81019080803573ffffffffffffffffffffffffffffffffffffffff16906020019092919080359060200190929190803590602001909291908035906020019092919080359060200190640100000000811115610e5557600080fd5b820183602082011115610e6757600080fd5b80359060200191846001830284011164010000000083111715610e8957600080fd5b91908080601f016020809104026020016040519081016040528093929190818152602001838380828437600081840152601f19601f8201169050808301925050505050505091929192905050506128bd565b005b610f0960048036036020811015610ef357600080fd5b810190808035906020019092919050505061299c565b6040518082815260200191505060405180910390f35b610f6b60048036036040811015610f3557600080fd5b8101908080359060200190929190803573ffffffffffffffffffffffffffffffffffffffff1690602001909291905050506129c3565b005b610fcf60048036036040811015610f8357600080fd5b81019080803573ffffffffffffffffffffffffffffffffffffffff169060200190929190803573ffffffffffffffffffffffffffffffffffffffff169060200190929190505050612a4d565b6040518082815260200191505060405180910390f35b61116260048036036080811015610ffb57600080fd5b810190808035906020019064010000000081111561101857600080fd5b82018360208201111561102a57600080fd5b8035906020019184600183028401116401000000008311171561104c57600080fd5b91908080601f016020809104026020016040519081016040528093929190818152602001838380828437600081840152601f19601f820116905080830192505050505050509192919290803590602001906401000000008111156110af57600080fd5b8201836020820111156110c157600080fd5b803590602001918460018302840111640100000000831117156110e357600080fd5b91908080601f016020809104026020016040519081016040528093929190818152602001838380828437600081840152601f19601f820116905080830192505050505050509192919290803560ff169060200190929190803573ffffffffffffffffffffffffffffffffffffffff169060200190929190505050612ad4565b005b61116c612ae6565b604051808273ffffffffffffffffffffffffffffffffffffffff16815260200191505060405180910390f35b60006111bd6111a683612b11565b6111af84611bc6565b612b7490919063ffffffff16565b9050919050565b6060609a8054600181600116156101000203166002900480601f01602080910402602001604051908101604052809291908181526020018280546001816001161561010002031660029004801561125c5780601f106112315761010080835404028352916020019161125c565b820191906000526020600020905b81548152906001019060200180831161123f57829003601f168201915b5050505050905090565b600061127a611273612bbe565b8484612bc6565b6001905092915050565b60006112908784612dbd565b6000308888888888604051602001808773ffffffffffffffffffffffffffffffffffffffff1660601b81526014018673ffffffffffffffffffffffffffffffffffffffff1660601b81526014018573ffffffffffffffffffffffffffffffffffffffff1660601b81526014018481526020018381526020018281526020019650505050505050604051602081830303815290604052805190602001209050611339818985612ede565b6113438886612faa565b61134e888888612fe9565b60019150509695505050505050565b6000609954905090565b6000611374848484612fe9565b61143584611380612bbe565b61143085604051806060016040528060288152602001614d6160289139609860008b73ffffffffffffffffffffffffffffffffffffffff1673ffffffffffffffffffffffffffffffffffffffff16815260200190815260200160002060006113e6612bbe565b73ffffffffffffffffffffffffffffffffffffffff1673ffffffffffffffffffffffffffffffffffffffff168152602001908152602001600020546132ae9092919063ffffffff16565b612bc6565b600190509392505050565b600060656000838152602001908152602001600020600201549050919050565b6114876065600084815260200190815260200160002060020154611482612bbe565b61252d565b6114dc576040517f08c379a000000000000000000000000000000000000000000000000000000000815260040180806020018281038252602f815260200180614a56602f913960400191505060405180910390fd5b6114e6828261336e565b5050565b6000609c60009054906101000a900460ff16905090565b611509612bbe565b73ffffffffffffffffffffffffffffffffffffffff168173ffffffffffffffffffffffffffffffffffffffff161461158c576040517f08c379a000000000000000000000000000000000000000000000000000000000815260040180806020018281038252602f815260200180614fc9602f913960400191505060405180910390fd5b6115968282613402565b5050565b60006115a582612b11565b9050919050565b60006116556115b9612bbe565b8461165085609860006115ca612bbe565b73ffffffffffffffffffffffffffffffffffffffff1673ffffffffffffffffffffffffffffffffffffffff16815260200190815260200160002060008973ffffffffffffffffffffffffffffffffffffffff1673ffffffffffffffffffffffffffffffffffffffff1681526020019081526020016000205461349690919063ffffffff16565b612bc6565b6001905092915050565b60008060fc60008573ffffffffffffffffffffffffffffffffffffffff1673ffffffffffffffffffffffffffffffffffffffff16815260200190815260200160002060008481526020019081526020016000209050600081600401541415611712576040517f08c379a000000000000000000000000000000000000000000000000000000000815260040180806020018281038252602b815260200180614f79602b913960400191505060405180910390fd5b8373ffffffffffffffffffffffffffffffffffffffff16611731612bbe565b73ffffffffffffffffffffffffffffffffffffffff1614806117a957508060030160009054906101000a900473ffffffffffffffffffffffffffffffffffffffff1673ffffffffffffffffffffffffffffffffffffffff16611791612bbe565b73ffffffffffffffffffffffffffffffffffffffff16145b6117fe576040517f08c379a000000000000000000000000000000000000000000000000000000000815260040180806020018281038252604b815260200180614f2e604b913960600191505060405180910390fd5b4381600401541161185a576040517f08c379a000000000000000000000000000000000000000000000000000000000815260040180806020018281038252603f815260200180614afa603f913960400191505060405180910390fd5b6000600281111561186757fe5b8160050160009054906101000a900460ff16600281111561188457fe5b146118da576040517f08c379a0000000000000000000000000000000000000000000000000000000008152600401808060200182810382526036815260200180614dc76036913960400191505060405180910390fd5b60008160030160009054906101000a900473ffffffffffffffffffffffffffffffffffffffff16905060008260020160009054906101000a900473ffffffffffffffffffffffffffffffffffffffff1690506000836001015490506000846000015490506000611953838361349690919063ffffffff16565b9050600260fc60008b73ffffffffffffffffffffffffffffffffffffffff1673ffffffffffffffffffffffffffffffffffffffff16815260200190815260200160002060008a815260200190815260200160002060050160006101000a81548160ff021916908360028111156119c557fe5b0217905550611a1c8160fd60008c73ffffffffffffffffffffffffffffffffffffffff1673ffffffffffffffffffffffffffffffffffffffff16815260200190815260200160002054612b7490919063ffffffff16565b60fd60008b73ffffffffffffffffffffffffffffffffffffffff1673ffffffffffffffffffffffffffffffffffffffff16815260200190815260200160002081905550611a6a898685612fe9565b611a75898584612fe9565b6001965050505050505092915050565b7f44674c7a3dadbc647cc1c715644fb9e12bedb87e49073fca9375f19f3840275181565b611aba611ab4612bbe565b8261351e565b50565b600061016460009054906101000a900460ff16905090565b611adf858361369e565b60003086868686604051602001808673ffffffffffffffffffffffffffffffffffffffff1660601b81526014018573ffffffffffffffffffffffffffffffffffffffff1660601b815260140184815260200183815260200182815260200195505050505050604051602081830303815290604052805190602001209050611b67818784612ede565b6000611b947f44674c7a3dadbc647cc1c715644fb9e12bedb87e49073fca9375f19f3840275160006124fb565b9050611ba1878287612fe9565b611bbd87611bb88789612b7490919063ffffffff16565b61351e565b50505050505050565b6000609760008373ffffffffffffffffffffffffffffffffffffffff1673ffffffffffffffffffffffffffffffffffffffff168152602001908152602001600020549050919050565b60008060fc60008b73ffffffffffffffffffffffffffffffffffffffff1673ffffffffffffffffffffffffffffffffffffffff16815260200190815260200160002060008681526020019081526020016000206004015414611cbc576040517f08c379a0000000000000000000000000000000000000000000000000000000008152600401808060200182810382526032815260200180614ed86032913960400191505060405180910390fd5b438311611d14576040517f08c379a000000000000000000000000000000000000000000000000000000000815260040180806020018281038252602c815260200180614ff8602c913960400191505060405180910390fd5b600073ffffffffffffffffffffffffffffffffffffffff168773ffffffffffffffffffffffffffffffffffffffff161415611d9a576040517f08c379a0000000000000000000000000000000000000000000000000000000008152600401808060200182810382526031815260200180614aa76031913960400191505060405180910390fd5b6000611daf868861349690919063ffffffff16565b905080611dbb8b612b11565b1015611e12576040517f08c379a0000000000000000000000000000000000000000000000000000000008152600401808060200182810382526030815260200180614bb76030913960400191505060405180910390fd5b6000308b8b8a8a8a604051602001808773ffffffffffffffffffffffffffffffffffffffff1660601b81526014018673ffffffffffffffffffffffffffffffffffffffff1660601b81526014018573ffffffffffffffffffffffffffffffffffffffff1660601b81526014018481526020018381526020018281526020019650505050505050604051602081830303815290604052805190602001209050611ebb818c86612ede565b6040518060c001604052808981526020018881526020018b73ffffffffffffffffffffffffffffffffffffffff1681526020018a73ffffffffffffffffffffffffffffffffffffffff16815260200186815260200160006002811115611f1d57fe5b81525060fc60008d73ffffffffffffffffffffffffffffffffffffffff1673ffffffffffffffffffffffffffffffffffffffff1681526020019081526020016000206000888152602001908152602001600020600082015181600001556020820151816001015560408201518160020160006101000a81548173ffffffffffffffffffffffffffffffffffffffff021916908373ffffffffffffffffffffffffffffffffffffffff16021790555060608201518160030160006101000a81548173ffffffffffffffffffffffffffffffffffffffff021916908373ffffffffffffffffffffffffffffffffffffffff1602179055506080820151816004015560a08201518160050160006101000a81548160ff0219169083600281111561204057fe5b021790555090505061209a8260fd60008e73ffffffffffffffffffffffffffffffffffffffff1673ffffffffffffffffffffffffffffffffffffffff1681526020019081526020016000205461349690919063ffffffff16565b60fd60008d73ffffffffffffffffffffffffffffffffffffffff1673ffffffffffffffffffffffffffffffffffffffff1681526020019081526020016000208190555060019250505098975050505050505050565b60008060fc60008573ffffffffffffffffffffffffffffffffffffffff1673ffffffffffffffffffffffffffffffffffffffff168152602001908152602001600020600084815260200190815260200160002090506000816004015414156121a2576040517f08c379a000000000000000000000000000000000000000000000000000000000815260040180806020018281038252602b815260200180614f79602b913960400191505060405180910390fd5b8373ffffffffffffffffffffffffffffffffffffffff166121c1612bbe565b73ffffffffffffffffffffffffffffffffffffffff16148061223957508060030160009054906101000a900473ffffffffffffffffffffffffffffffffffffffff1673ffffffffffffffffffffffffffffffffffffffff16612221612bbe565b73ffffffffffffffffffffffffffffffffffffffff16145b61228e576040517f08c379a000000000000000000000000000000000000000000000000000000000815260040180806020018281038252605f815260200180614ca2605f913960600191505060405180910390fd5b4381600401541115806122f757508060030160009054906101000a900473ffffffffffffffffffffffffffffffffffffffff1673ffffffffffffffffffffffffffffffffffffffff166122df612bbe565b73ffffffffffffffffffffffffffffffffffffffff16145b61234c576040517f08c379a0000000000000000000000000000000000000000000000000000000008152600401808060200182810382526060815260200180614be76060913960600191505060405180910390fd5b6000600281111561235957fe5b8160050160009054906101000a900460ff16600281111561237657fe5b146123cc576040517f08c379a0000000000000000000000000000000000000000000000000000000008152600401808060200182810382526036815260200180614b5f6036913960400191505060405180910390fd5b600160fc60008673ffffffffffffffffffffffffffffffffffffffff1673ffffffffffffffffffffffffffffffffffffffff168152602001908152602001600020600085815260200190815260200160002060050160006101000a81548160ff0219169083600281111561243c57fe5b02179055506124ad816001015461249f836000015460fd60008973ffffffffffffffffffffffffffffffffffffffff1673ffffffffffffffffffffffffffffffffffffffff16815260200190815260200160002054612b7490919063ffffffff16565b612b7490919063ffffffff16565b60fd60008673ffffffffffffffffffffffffffffffffffffffff1673ffffffffffffffffffffffffffffffffffffffff16815260200190815260200160002081905550600191505092915050565b600061252582606560008681526020019081526020016000206000016137c190919063ffffffff16565b905092915050565b600061255782606560008681526020019081526020016000206000016137db90919063ffffffff16565b905092915050565b7fe2b7fb3b832174769106daebcfd6d1970523240dda11281102db9363b83b0dc481565b6060609b8054600181600116156101000203166002900480601f01602080910402602001604051908101604052809291908181526020018280546001816001161561010002031660029004801561261b5780601f106125f05761010080835404028352916020019161261b565b820191906000526020600020905b8154815290600101906020018083116125fe57829003601f168201915b5050505050905090565b612636612630612bbe565b8261380b565b50565b6000801b81565b6000806000806000612650614906565b60fc60008973ffffffffffffffffffffffffffffffffffffffff1673ffffffffffffffffffffffffffffffffffffffff16815260200190815260200160002060008881526020019081526020016000206040518060c001604052908160008201548152602001600182015481526020016002820160009054906101000a900473ffffffffffffffffffffffffffffffffffffffff1673ffffffffffffffffffffffffffffffffffffffff1673ffffffffffffffffffffffffffffffffffffffff1681526020016003820160009054906101000a900473ffffffffffffffffffffffffffffffffffffffff1673ffffffffffffffffffffffffffffffffffffffff1673ffffffffffffffffffffffffffffffffffffffff168152602001600482015481526020016005820160009054906101000a900460ff16600281111561279357fe5b600281111561279e57fe5b8152505090508060000151955080602001519450806040015193508060600151925080608001519150509295509295909350565b60006128956127df612bbe565b8461289085604051806060016040528060258152602001614fa46025913960986000612809612bbe565b73ffffffffffffffffffffffffffffffffffffffff1673ffffffffffffffffffffffffffffffffffffffff16815260200190815260200160002060008a73ffffffffffffffffffffffffffffffffffffffff1673ffffffffffffffffffffffffffffffffffffffff168152602001908152602001600020546132ae9092919063ffffffff16565b612bc6565b6001905092915050565b60006128b36128ac612bbe565b8484612fe9565b6001905092915050565b6128c7858361369e565b60003086868686604051602001808673ffffffffffffffffffffffffffffffffffffffff1660601b81526014018573ffffffffffffffffffffffffffffffffffffffff1660601b81526014018481526020018381526020018281526020019550505050505060405160208183030381529060405280519060200120905061294f818784612ede565b612959868661380b565b60006129867f44674c7a3dadbc647cc1c715644fb9e12bedb87e49073fca9375f19f3840275160006124fb565b9050612993878287612fe9565b50505050505050565b60006129bc606560008481526020019081526020016000206000016139a9565b9050919050565b6129ea60656000848152602001908152602001600020600201546129e5612bbe565b61252d565b612a3f576040517f08c379a0000000000000000000000000000000000000000000000000000000008152600401808060200182810382526030815260200180614c476030913960400191505060405180910390fd5b612a498282613402565b5050565b6000609860008473ffffffffffffffffffffffffffffffffffffffff1673ffffffffffffffffffffffffffffffffffffffff16815260200190815260200160002060008373ffffffffffffffffffffffffffffffffffffffff1673ffffffffffffffffffffffffffffffffffffffff16815260200190815260200160002054905092915050565b612ae0848484846139be565b50505050565b600061013060009054906101000a900473ffffffffffffffffffffffffffffffffffffffff16905090565b6000612b6d60fd60008473ffffffffffffffffffffffffffffffffffffffff1673ffffffffffffffffffffffffffffffffffffffff16815260200190815260200160002054612b5f84611bc6565b612b7490919063ffffffff16565b9050919050565b6000612bb683836040518060400160405280601e81526020017f536166654d6174683a207375627472616374696f6e206f766572666c6f7700008152506132ae565b905092915050565b600033905090565b600073ffffffffffffffffffffffffffffffffffffffff168373ffffffffffffffffffffffffffffffffffffffff161415612c4c576040517f08c379a0000000000000000000000000000000000000000000000000000000008152600401808060200182810382526024815260200180614f0a6024913960400191505060405180910390fd5b600073ffffffffffffffffffffffffffffffffffffffff168273ffffffffffffffffffffffffffffffffffffffff161415612cd2576040517f08c379a0000000000000000000000000000000000000000000000000000000008152600401808060200182810382526022815260200180614ad86022913960400191505060405180910390fd5b80609860008573ffffffffffffffffffffffffffffffffffffffff1673ffffffffffffffffffffffffffffffffffffffff16815260200190815260200160002060008473ffffffffffffffffffffffffffffffffffffffff1673ffffffffffffffffffffffffffffffffffffffff168152602001908152602001600020819055508173ffffffffffffffffffffffffffffffffffffffff168373ffffffffffffffffffffffffffffffffffffffff167f8c5be1e5ebec7d5bd14f71427d1e84f3dd0314c0f7b2291e5b200ac8c7c3b925836040518082815260200191505060405180910390a3505050565b60c960008373ffffffffffffffffffffffffffffffffffffffff1673ffffffffffffffffffffffffffffffffffffffff168152602001908152602001600020600082815260200190815260200160002060009054906101000a900460ff1615612e71576040517f08c379a000000000000000000000000000000000000000000000000000000000815260040180806020018281038252603e815260200180614d23603e913960400191505060405180910390fd5b600160c960008473ffffffffffffffffffffffffffffffffffffffff1673ffffffffffffffffffffffffffffffffffffffff168152602001908152602001600020600083815260200190815260200160002060006101000a81548160ff0219169083151502179055505050565b6000612ee984613adc565b90506000612f008383613b3490919063ffffffff16565b90508373ffffffffffffffffffffffffffffffffffffffff168173ffffffffffffffffffffffffffffffffffffffff1614612fa3576040517f08c379a000000000000000000000000000000000000000000000000000000000815260040180806020018281038252601b8152602001807f56616c69646174653a20696e76616c6964207369676e6174757265000000000081525060200191505060405180910390fd5b5050505050565b6000612fd77fe2b7fb3b832174769106daebcfd6d1970523240dda11281102db9363b83b0dc460006124fb565b9050612fe4838284612fe9565b505050565b600073ffffffffffffffffffffffffffffffffffffffff168373ffffffffffffffffffffffffffffffffffffffff16141561306f576040517f08c379a0000000000000000000000000000000000000000000000000000000008152600401808060200182810382526025815260200180614e786025913960400191505060405180910390fd5b600073ffffffffffffffffffffffffffffffffffffffff168273ffffffffffffffffffffffffffffffffffffffff1614156130f5576040517f08c379a0000000000000000000000000000000000000000000000000000000008152600401808060200182810382526023815260200180614a336023913960400191505060405180910390fd5b613100838383613dcc565b61316c81604051806060016040528060268152602001614b3960269139609760008773ffffffffffffffffffffffffffffffffffffffff1673ffffffffffffffffffffffffffffffffffffffff168152602001908152602001600020546132ae9092919063ffffffff16565b609760008573ffffffffffffffffffffffffffffffffffffffff1673ffffffffffffffffffffffffffffffffffffffff1681526020019081526020016000208190555061320181609760008573ffffffffffffffffffffffffffffffffffffffff1673ffffffffffffffffffffffffffffffffffffffff1681526020019081526020016000205461349690919063ffffffff16565b609760008473ffffffffffffffffffffffffffffffffffffffff1673ffffffffffffffffffffffffffffffffffffffff168152602001908152602001600020819055508173ffffffffffffffffffffffffffffffffffffffff168373ffffffffffffffffffffffffffffffffffffffff167fddf252ad1be2c89b69c2b068fc378daa952ba7f163c4a11628f55a4df523b3ef836040518082815260200191505060405180910390a3505050565b600083831115829061335b576040517f08c379a00000000000000000000000000000000000000000000000000000000081526004018080602001828103825283818151815260200191508051906020019080838360005b83811015613320578082015181840152602081019050613305565b50505050905090810190601f16801561334d5780820380516001836020036101000a031916815260200191505b509250505060405180910390fd5b5060008385039050809150509392505050565b6133968160656000858152602001908152602001600020600001613ddc90919063ffffffff16565b156133fe576133a3612bbe565b73ffffffffffffffffffffffffffffffffffffffff168173ffffffffffffffffffffffffffffffffffffffff16837f2f8788117e7eff1d82e926ec794901d17c78024a50270940304540a733656f0d60405160405180910390a45b5050565b61342a8160656000858152602001908152602001600020600001613e0c90919063ffffffff16565b1561349257613437612bbe565b73ffffffffffffffffffffffffffffffffffffffff168173ffffffffffffffffffffffffffffffffffffffff16837ff6391f5c32d9c69d2a47ea670b442974b53935d1edc7fd64eb21e047a839171b60405160405180910390a45b5050565b600080828401905083811015613514576040517f08c379a000000000000000000000000000000000000000000000000000000000815260040180806020018281038252601b8152602001807f536166654d6174683a206164646974696f6e206f766572666c6f77000000000081525060200191505060405180910390fd5b8091505092915050565b61013060009054906101000a900473ffffffffffffffffffffffffffffffffffffffff1673ffffffffffffffffffffffffffffffffffffffff1663a9059cbb83836040518363ffffffff1660e01b8152600401808373ffffffffffffffffffffffffffffffffffffffff16815260200182815260200192505050602060405180830381600087803b1580156135b257600080fd5b505af11580156135c6573d6000803e3d6000fd5b505050506040513d60208110156135dc57600080fd5b8101908080519060200190929190505050613642576040517f08c379a000000000000000000000000000000000000000000000000000000000815260040180806020018281038252602c815260200180614e4c602c913960400191505060405180910390fd5b8173ffffffffffffffffffffffffffffffffffffffff167f919f7e2092ffcc9d09f599be18d8152860b0c054df788a33bc549cdd9d0f15b1826040518082815260200191505060405180910390a261369a8282613e3c565b5050565b61013160008373ffffffffffffffffffffffffffffffffffffffff1673ffffffffffffffffffffffffffffffffffffffff168152602001908152602001600020600082815260200190815260200160002060009054906101000a900460ff1615613753576040517f08c379a000000000000000000000000000000000000000000000000000000000815260040180806020018281038252603e815260200180614d89603e913960400191505060405180910390fd5b600161013160008473ffffffffffffffffffffffffffffffffffffffff1673ffffffffffffffffffffffffffffffffffffffff168152602001908152602001600020600083815260200190815260200160002060006101000a81548160ff0219169083151502179055505050565b60006137d08360000183614002565b60001c905092915050565b6000613803836000018373ffffffffffffffffffffffffffffffffffffffff1660001b614085565b905092915050565b61013060009054906101000a900473ffffffffffffffffffffffffffffffffffffffff1673ffffffffffffffffffffffffffffffffffffffff166323b872dd8330846040518463ffffffff1660e01b8152600401808473ffffffffffffffffffffffffffffffffffffffff1681526020018373ffffffffffffffffffffffffffffffffffffffff1681526020018281526020019350505050602060405180830381600087803b1580156138bd57600080fd5b505af11580156138d1573d6000803e3d6000fd5b505050506040513d60208110156138e757600080fd5b810190808051906020019092919050505061394d576040517f08c379a000000000000000000000000000000000000000000000000000000000815260040180806020018281038252602b815260200180614c77602b913960400191505060405180910390fd5b8173ffffffffffffffffffffffffffffffffffffffff167f0f6798a560793a54c3bcfe86a93cde1e73087d944c0ea20544137d4121396885826040518082815260200191505060405180910390a26139a582826140a8565b5050565b60006139b782600001614271565b9050919050565b600060019054906101000a900460ff16806139dd57506139dc614282565b5b806139f3575060008054906101000a900460ff16155b613a48576040517f08c379a000000000000000000000000000000000000000000000000000000000815260040180806020018281038252602e815260200180614dfd602e913960400191505060405180910390fd5b60008060019054906101000a900460ff161590508015613a98576001600060016101000a81548160ff02191690831515021790555060016000806101000a81548160ff0219169083151502179055505b613aa0614299565b613aaa8585614397565b613ab483836144e1565b8015613ad55760008060016101000a81548160ff0219169083151502179055505b5050505050565b60008160405160200180807f19457468657265756d205369676e6564204d6573736167653a0a333200000000815250601c01828152602001915050604051602081830303815290604052805190602001209050919050565b60006041825114613bad576040517f08c379a000000000000000000000000000000000000000000000000000000000815260040180806020018281038252601f8152602001807f45434453413a20696e76616c6964207369676e6174757265206c656e6774680081525060200191505060405180910390fd5b60008060006020850151925060408501519150606085015160001a90507f7fffffffffffffffffffffffffffffff5d576e7357a4501ddfe92f46681b20a08260001c1115613c46576040517f08c379a0000000000000000000000000000000000000000000000000000000008152600401808060200182810382526022815260200180614b956022913960400191505060405180910390fd5b601b8160ff1614158015613c5e5750601c8160ff1614155b15613cb4576040517f08c379a0000000000000000000000000000000000000000000000000000000008152600401808060200182810382526022815260200180614d016022913960400191505060405180910390fd5b600060018783868660405160008152602001604052604051808581526020018460ff1681526020018381526020018281526020019450505050506020604051602081039080840390855afa158015613d10573d6000803e3d6000fd5b505050602060405103519050600073ffffffffffffffffffffffffffffffffffffffff168173ffffffffffffffffffffffffffffffffffffffff161415613dbf576040517f08c379a00000000000000000000000000000000000000000000000000000000081526004018080602001828103825260188152602001807f45434453413a20696e76616c6964207369676e6174757265000000000000000081525060200191505060405180910390fd5b8094505050505092915050565b613dd7838383614624565b505050565b6000613e04836000018373ffffffffffffffffffffffffffffffffffffffff1660001b614692565b905092915050565b6000613e34836000018373ffffffffffffffffffffffffffffffffffffffff1660001b614702565b905092915050565b600073ffffffffffffffffffffffffffffffffffffffff168273ffffffffffffffffffffffffffffffffffffffff161415613ec2576040517f08c379a0000000000000000000000000000000000000000000000000000000008152600401808060200182810382526021815260200180614e2b6021913960400191505060405180910390fd5b613ece82600083613dcc565b613f3a81604051806060016040528060228152602001614a8560229139609760008673ffffffffffffffffffffffffffffffffffffffff1673ffffffffffffffffffffffffffffffffffffffff168152602001908152602001600020546132ae9092919063ffffffff16565b609760008473ffffffffffffffffffffffffffffffffffffffff1673ffffffffffffffffffffffffffffffffffffffff16815260200190815260200160002081905550613f9281609954612b7490919063ffffffff16565b609981905550600073ffffffffffffffffffffffffffffffffffffffff168273ffffffffffffffffffffffffffffffffffffffff167fddf252ad1be2c89b69c2b068fc378daa952ba7f163c4a11628f55a4df523b3ef836040518082815260200191505060405180910390a35050565b600081836000018054905011614063576040517f08c379a0000000000000000000000000000000000000000000000000000000008152600401808060200182810382526022815260200180614a116022913960400191505060405180910390fd5b82600001828154811061407257fe5b9060005260206000200154905092915050565b600080836001016000848152602001908152602001600020541415905092915050565b600073ffffffffffffffffffffffffffffffffffffffff168273ffffffffffffffffffffffffffffffffffffffff16141561414b576040517f08c379a000000000000000000000000000000000000000000000000000000000815260040180806020018281038252601f8152602001807f45524332303a206d696e7420746f20746865207a65726f20616464726573730081525060200191505060405180910390fd5b61415760008383613dcc565b61416c8160995461349690919063ffffffff16565b6099819055506141c481609760008573ffffffffffffffffffffffffffffffffffffffff1673ffffffffffffffffffffffffffffffffffffffff1681526020019081526020016000205461349690919063ffffffff16565b609760008473ffffffffffffffffffffffffffffffffffffffff1673ffffffffffffffffffffffffffffffffffffffff168152602001908152602001600020819055508173ffffffffffffffffffffffffffffffffffffffff16600073ffffffffffffffffffffffffffffffffffffffff167fddf252ad1be2c89b69c2b068fc378daa952ba7f163c4a11628f55a4df523b3ef836040518082815260200191505060405180910390a35050565b600081600001805490509050919050565b6000803090506000813b9050600081149250505090565b600060019054906101000a900460ff16806142b857506142b7614282565b5b806142ce575060008054906101000a900460ff16155b614323576040517f08c379a000000000000000000000000000000000000000000000000000000000815260040180806020018281038252602e815260200180614dfd602e913960400191505060405180910390fd5b60008060019054906101000a900460ff161590508015614373576001600060016101000a81548160ff02191690831515021790555060016000806101000a81548160ff0219169083151502179055505b80156143945760008060016101000a81548160ff0219169083151502179055505b50565b600060019054906101000a900460ff16806143b657506143b5614282565b5b806143cc575060008054906101000a900460ff16155b614421576040517f08c379a000000000000000000000000000000000000000000000000000000000815260040180806020018281038252602e815260200180614dfd602e913960400191505060405180910390fd5b60008060019054906101000a900460ff161590508015614471576001600060016101000a81548160ff02191690831515021790555060016000806101000a81548160ff0219169083151502179055505b82609a9080519060200190614487929190614973565b5081609b908051906020019061449e929190614973565b506012609c60006101000a81548160ff021916908360ff16021790555080156144dc5760008060016101000a81548160ff0219169083151502179055505b505050565b600060019054906101000a900460ff168061450057506144ff614282565b5b80614516575060008054906101000a900460ff16155b61456b576040517f08c379a000000000000000000000000000000000000000000000000000000000815260040180806020018281038252602e815260200180614dfd602e913960400191505060405180910390fd5b60008060019054906101000a900460ff1615905080156145bb576001600060016101000a81548160ff02191690831515021790555060016000806101000a81548160ff0219169083151502179055505b6145c4836147ea565b6145cd82614808565b6145fe7f44674c7a3dadbc647cc1c715644fb9e12bedb87e49073fca9375f19f384027516145f9612bbe565b61484d565b801561461f5760008060016101000a81548160ff0219169083151502179055505b505050565b61462f83838361485b565b614637611abd565b1561468d576040517f08c379a000000000000000000000000000000000000000000000000000000000815260040180806020018281038252602a815260200180615024602a913960400191505060405180910390fd5b505050565b600061469e8383614085565b6146f75782600001829080600181540180825580915050600190039060005260206000200160009091909190915055826000018054905083600101600084815260200190815260200160002081905550600190506146fc565b600090505b92915050565b600080836001016000848152602001908152602001600020549050600081146147de576000600182039050600060018660000180549050039050600086600001828154811061474d57fe5b906000526020600020015490508087600001848154811061476a57fe5b90600052602060002001819055506001830187600101600083815260200190815260200160002081905550866000018054806147a257fe5b600190038181906000526020600020016000905590558660010160008781526020019081526020016000206000905560019450505050506147e4565b60009150505b92915050565b80609c60006101000a81548160ff021916908360ff16021790555050565b8061013060006101000a81548173ffffffffffffffffffffffffffffffffffffffff021916908373ffffffffffffffffffffffffffffffffffffffff16021790555050565b614857828261336e565b5050565b600073ffffffffffffffffffffffffffffffffffffffff168373ffffffffffffffffffffffffffffffffffffffff16146148f1578061489984612b11565b10156148f0576040517f08c379a000000000000000000000000000000000000000000000000000000000815260040180806020018281038252603b815260200180614e9d603b913960400191505060405180910390fd5b5b6148fc838383614901565b505050565b505050565b6040518060c001604052806000815260200160008152602001600073ffffffffffffffffffffffffffffffffffffffff168152602001600073ffffffffffffffffffffffffffffffffffffffff168152602001600081526020016000600281111561496d57fe5b81525090565b828054600181600116156101000203166002900490600052602060002090601f016020900481019282601f106149b457805160ff19168380011785556149e2565b828001600101855582156149e2579182015b828111156149e15782518255916020019190600101906149c6565b5b5090506149ef91906149f3565b5090565b5b80821115614a0c5760008160009055506001016149f4565b509056fe456e756d657261626c655365743a20696e646578206f7574206f6620626f756e647345524332303a207472616e7366657220746f20746865207a65726f2061646472657373416363657373436f6e74726f6c3a2073656e646572206d75737420626520616e2061646d696e20746f206772616e7445524332303a206275726e20616d6f756e7420657863656564732062616c616e6365455243323052657365727661626c653a2063616e6e6f7420657865637574652066726f6d207a65726f206164647265737345524332303a20617070726f766520746f20746865207a65726f2061646472657373455243323052657365727661626c653a207265736572766174696f6e20686173206578706972656420616e642063616e6e6f7420626520657865637574656445524332303a207472616e7366657220616d6f756e7420657863656564732062616c616e6365455243323052657365727661626c653a20696e76616c6964207265736572766174696f6e2073746174757320746f207265636c61696d45434453413a20696e76616c6964207369676e6174757265202773272076616c7565455243323052657365727661626c653a20696e73756666696369656e7420756e72657365727665642062616c616e6365455243323052657365727661626c653a207265736572766174696f6e20686173206e6f742065787069726564206f7220796f7520617265206e6f7420746865206578656375746f7220616e642063616e6e6f74206265207265636c61696d6564416363657373436f6e74726f6c3a2073656e646572206d75737420626520616e2061646d696e20746f207265766f6b654552433230577261707065723a20636f756c64206e6f74206465706f736974206261736520746f6b656e73455243323052657365727661626c653a206f6e6c79207468652073656e646572206f7220746865206578656375746f722063616e207265636c61696d20746865207265736572766174696f6e206261636b20746f207468652073656e64657245434453413a20696e76616c6964207369676e6174757265202776272076616c756545524332304554486c6573733a20746865206e6f6e63652068617320616c7265616479206265656e207573656420666f722074686973206164647265737345524332303a207472616e7366657220616d6f756e74206578636565647320616c6c6f77616e63654552433230577261707065723a20746865206e6f6e63652068617320616c7265616479206265656e207573656420666f7220746869732061646472657373455243323052657365727661626c653a20696e76616c6964207265736572766174696f6e2073746174757320746f2065786563757465436f6e747261637420696e7374616e63652068617320616c7265616479206265656e20696e697469616c697a656445524332303a206275726e2066726f6d20746865207a65726f20616464726573734552433230577261707065723a20636f756c64206e6f74207769746864726177206261736520746f6b656e7345524332303a207472616e736665722066726f6d20746865207a65726f2061646472657373455243323052657365727661626c653a207472616e7366657220616d6f756e74206578636565647320756e72657365727665642062616c616e6365455243323052657365727661626c653a207468652073656e646572207573656420746865206e6f6e636520616c726561647945524332303a20617070726f76652066726f6d20746865207a65726f2061646472657373455243323052657365727661626c653a20746869732061646472657373206973206e6f7420617574686f72697a656420746f20657865637574652074686973207265736572766174696f6e455243323052657365727661626c653a207265736572766174696f6e20646f6573206e6f7420657869737445524332303a2064656372656173656420616c6c6f77616e63652062656c6f77207a65726f416363657373436f6e74726f6c3a2063616e206f6e6c792072656e6f756e636520726f6c657320666f722073656c66455243323052657365727661626c653a20696e76616c696420626c6f636b20657870697279206e756d62657245524332305061757361626c653a20746f6b656e207472616e73666572207768696c6520706175736564a264697066735822122040526a3f614096c56c4526aa4b32309938705a5d58a6e6a42110df74677efaa664736f6c634300060c0033",
  "immutableReferences": {},
  "source": "// SPDX-License-Identifier: MIT\npragma solidity ^0.6.0;\n\nimport \"@openzeppelin/contracts-ethereum-package/contracts/GSN/Context.sol\";\nimport \"@openzeppelin/contracts-ethereum-package/contracts/token/ERC20/ERC20Pausable.sol\";\nimport \"@openzeppelin/contracts-ethereum-package/contracts/Initializable.sol\";\n\nimport \"./abstracts/ERC20ETHlessTransfer.sol\";\nimport \"./abstracts/ERC20Reservable.sol\";\nimport \"./abstracts/ERC20Wrapper.sol\";\n\n/**\n * @dev Extension of {Gluwacoin} that allows a certain ERC20 token holders to wrap the token to mint this token.\n * Holder of this token can retrieve the wrapped token by burning this token.\n */\ncontract ERC20WrapperGluwacoin is Initializable, ContextUpgradeSafe, ERC20ETHless, ERC20Reservable, ERC20Wrapper, ERC20PausableUpgradeSafe  {\n    // note that `decimals` must match that of `token` or less\n    function initialize(string memory name, string memory symbol, uint8 decimals, IERC20 token) public {\n        __ERC20Wrapper_init(name, symbol, decimals, token);\n    }\n\n    function __ERC20WrapperGluwacoin_init(string memory name, string memory symbol, uint8 decimals, IERC20 token)\n    internal initializer {\n        __Context_init_unchained();\n        __ERC20_init_unchained(name, symbol);\n        __ERC20ETHless_init_unchained();\n        __ERC20Reservable_init_unchained();\n        __ERC20Wrapper_init_unchained(decimals, token);\n        __ERC20WrapperGluwacoin_init_unchained();\n    }\n\n    function __ERC20WrapperGluwacoin_init_unchained() internal initializer {\n    }\n\n    function _beforeTokenTransfer(address from, address to, uint256 amount) internal override\n    (ERC20UpgradeSafe, ERC20PausableUpgradeSafe, ERC20Reservable) {\n        super._beforeTokenTransfer(from, to, amount);\n    }\n\n    uint256[50] private __gap;\n}",
  "sourcePath": "/Users/taeoh/GitHub/ERC20-Wrapper-Gluwacoin/contracts/ERC20WrapperGluwacoin.sol",
  "compiler": {
    "name": "solc",
    "version": "0.6.12+commit.27d51765.Emscripten.clang"
  },
  "schemaVersion": "3.3.3",
  "updatedAt": "2020-12-29T07:19:21.142Z",
  "devdoc": {
    "details": "Extension of {Gluwacoin} that allows a certain ERC20 token holders to wrap the token to mint this token. Holder of this token can retrieve the wrapped token by burning this token.",
    "kind": "dev",
    "methods": {
      "allowance(address,address)": {
        "details": "See {IERC20-allowance}."
      },
      "approve(address,uint256)": {
        "details": "See {IERC20-approve}. Requirements: - `spender` cannot be the zero address."
      },
      "balanceOf(address)": {
        "details": "See {IERC20-balanceOf}."
      },
      "burn(address,uint256,uint256,uint256,bytes)": {
        "details": "`burn` but with `burner`, `fee`, `nonce`, and `sig` as extra parameters. `fee` is a burn fee amount in Gluwacoin, which the burner will pay for the burn. `sig` is a signature created by signing the burn information with the burners private key. Anyone can initiate the burn for the burner by calling the Etherless Burn function with the burn information and the signature. The caller will have to pay the gas for calling the function. Destroys `amount` + `fee` tokens from the burner. Transfers `amount` of base tokens from the contract to the burner and `fee` of base token to the caller. See {ERC20-_burn}. Requirements: - the burner must have tokens of at least `amount` + `fee`."
      },
      "burn(uint256)": {
        "details": "Destroys `amount` tokens from the caller, transferring base tokens from the contract to the caller. See {ERC20-_burn}."
      },
      "decimals()": {
        "details": "Returns the number of decimals used to get its user representation. For example, if `decimals` equals `2`, a balance of `505` tokens should be displayed to a user as `5,05` (`505 / 10 ** 2`). Tokens usually opt for a value of 18, imitating the relationship between Ether and Wei. This is the value {ERC20} uses, unless {_setupDecimals} is called. NOTE: This information is only used for _display_ purposes: it in no way affects any of the arithmetic of the contract, including {IERC20-balanceOf} and {IERC20-transfer}."
      },
      "decreaseAllowance(address,uint256)": {
        "details": "Atomically decreases the allowance granted to `spender` by the caller. This is an alternative to {approve} that can be used as a mitigation for problems described in {IERC20-approve}. Emits an {Approval} event indicating the updated allowance. Requirements: - `spender` cannot be the zero address. - `spender` must have allowance for the caller of at least `subtractedValue`."
      },
      "getRoleAdmin(bytes32)": {
        "details": "Returns the admin role that controls `role`. See {grantRole} and {revokeRole}. To change a role's admin, use {_setRoleAdmin}."
      },
      "getRoleMember(bytes32,uint256)": {
        "details": "Returns one of the accounts that have `role`. `index` must be a value between 0 and {getRoleMemberCount}, non-inclusive. Role bearers are not sorted in any particular way, and their ordering may change at any point. WARNING: When using {getRoleMember} and {getRoleMemberCount}, make sure you perform all queries on the same block. See the following https://forum.openzeppelin.com/t/iterating-over-elements-on-enumerableset-in-openzeppelin-contracts/2296[forum post] for more information."
      },
      "getRoleMemberCount(bytes32)": {
        "details": "Returns the number of accounts that have `role`. Can be used together with {getRoleMember} to enumerate all bearers of a role."
      },
      "grantRole(bytes32,address)": {
        "details": "Grants `role` to `account`. If `account` had not been already granted `role`, emits a {RoleGranted} event. Requirements: - the caller must have ``role``'s admin role."
      },
      "hasRole(bytes32,address)": {
        "details": "Returns `true` if `account` has been granted `role`."
      },
      "increaseAllowance(address,uint256)": {
        "details": "Atomically increases the allowance granted to `spender` by the caller. This is an alternative to {approve} that can be used as a mitigation for problems described in {IERC20-approve}. Emits an {Approval} event indicating the updated allowance. Requirements: - `spender` cannot be the zero address."
      },
      "mint(address,uint256,uint256,uint256,bytes)": {
        "details": "`mint` but with `minter`, `fee`, `nonce`, and `sig` as extra parameters. `fee` is a mint fee amount in Gluwacoin, which the minter will pay for the mint. `sig` is a signature created by signing the mint information with the minters private key. Anyone can initiate the mint for the minter by calling the Etherless Mint function with the mint information and the signature. The caller will have to pay the gas for calling the function. Transfers `amount` + `fee` of base tokens from the minter to the contract using `transferFrom`. Creates `amount` + `fee` of tokens to the minter and transfers `fee` tokens to the caller. See {ERC20-_mint} and {ERC20-allowance}. Requirements: - the minter must have base tokens of at least `amount` + `fee`. - the contract must have allowance for receiver's base tokens of at least `amount` + `fee`."
      },
      "mint(uint256)": {
        "details": "Creates `amount` tokens to the caller, transferring base tokens from the caller to the contract. See {ERC20-_mint} and {ERC20-allowance}. Requirements: - the caller must have base tokens of at least `amount`. - the contract must have allowance for caller's base tokens of at least `amount`."
      },
      "name()": {
        "details": "Returns the name of the token."
      },
      "paused()": {
        "details": "Returns true if the contract is paused, and false otherwise."
      },
      "renounceRole(bytes32,address)": {
        "details": "Revokes `role` from the calling account. Roles are often managed via {grantRole} and {revokeRole}: this function's purpose is to provide a mechanism for accounts to lose their privileges if they are compromised (such as when a trusted device is misplaced). If the calling account had been granted `role`, emits a {RoleRevoked} event. Requirements: - the caller must be `account`."
      },
      "revokeRole(bytes32,address)": {
        "details": "Revokes `role` from `account`. If `account` had been granted `role`, emits a {RoleRevoked} event. Requirements: - the caller must have ``role``'s admin role."
      },
      "symbol()": {
        "details": "Returns the symbol of the token, usually a shorter version of the name."
      },
      "token()": {
        "details": "Returns the address of the base token."
      },
      "totalSupply()": {
        "details": "See {IERC20-totalSupply}."
      },
      "transfer(address,address,uint256,uint256,uint256,bytes)": {
        "details": "Moves `amount` tokens from the `sender`'s account to `recipient` and moves `fee` tokens from the `sender`'s account to a relayer's address. Returns a boolean value indicating whether the operation succeeded. Emits two {Transfer} events. Requirements: - `recipient` cannot be the zero address. - the `sender` must have a balance of at least the sum of `amount` and `fee`. - the `nonce` is only used once per `sender`."
      },
      "transfer(address,uint256)": {
        "details": "See {IERC20-transfer}. Requirements: - `recipient` cannot be the zero address. - the caller must have a balance of at least `amount`."
      },
      "transferFrom(address,address,uint256)": {
        "details": "See {IERC20-transferFrom}. Emits an {Approval} event indicating the updated allowance. This is not required by the EIP. See the note at the beginning of {ERC20}; Requirements: - `sender` and `recipient` cannot be the zero address. - `sender` must have a balance of at least `amount`. - the caller must have allowance for ``sender``'s tokens of at least `amount`."
      }
    },
    "version": 1
  },
  "userdoc": {
    "kind": "user",
    "methods": {},
    "version": 1
  }
}